{
  "contractName": "GoodsTransaction",
  "abi": [
    {
      "anonymous": false,
      "inputs": [
        {
          "indexed": false,
          "internalType": "address",
          "name": "from",
          "type": "address"
        },
        {
          "indexed": false,
          "internalType": "address",
          "name": "to",
          "type": "address"
        },
        {
          "indexed": false,
          "internalType": "string",
          "name": "goodsId",
          "type": "string"
        },
        {
          "indexed": false,
          "internalType": "string",
          "name": "data",
          "type": "string"
        },
        {
          "indexed": false,
          "internalType": "uint256",
          "name": "timestamp",
          "type": "uint256"
        }
      ],
      "name": "TransactionMade",
      "type": "event"
    },
    {
      "inputs": [
        {
          "internalType": "string",
          "name": "",
          "type": "string"
        },
        {
          "internalType": "uint256",
          "name": "",
          "type": "uint256"
        }
      ],
      "name": "goodsHistory",
      "outputs": [
        {
          "internalType": "address",
          "name": "from",
          "type": "address"
        },
        {
          "internalType": "address",
          "name": "to",
          "type": "address"
        },
        {
          "internalType": "string",
          "name": "goodsId",
          "type": "string"
        },
        {
          "internalType": "string",
          "name": "data",
          "type": "string"
        },
        {
          "internalType": "uint256",
          "name": "timestamp",
          "type": "uint256"
        }
      ],
      "stateMutability": "view",
      "type": "function"
    },
    {
      "inputs": [
        {
          "internalType": "uint256",
          "name": "",
          "type": "uint256"
        }
      ],
      "name": "transactions",
      "outputs": [
        {
          "internalType": "address",
          "name": "from",
          "type": "address"
        },
        {
          "internalType": "address",
          "name": "to",
          "type": "address"
        },
        {
          "internalType": "string",
          "name": "goodsId",
          "type": "string"
        },
        {
          "internalType": "string",
          "name": "data",
          "type": "string"
        },
        {
          "internalType": "uint256",
          "name": "timestamp",
          "type": "uint256"
        }
      ],
      "stateMutability": "view",
      "type": "function"
    },
    {
      "inputs": [
        {
          "internalType": "address",
          "name": "_to",
          "type": "address"
        },
        {
          "internalType": "string",
          "name": "_goodsId",
          "type": "string"
        },
        {
          "internalType": "string",
          "name": "_data",
          "type": "string"
        }
      ],
      "name": "makeTransaction",
      "outputs": [],
      "stateMutability": "nonpayable",
      "type": "function"
    },
    {
      "inputs": [
        {
          "internalType": "string",
          "name": "_goodsId",
          "type": "string"
        }
      ],
      "name": "getGoodsHistory",
      "outputs": [
        {
          "components": [
            {
              "internalType": "address",
              "name": "from",
              "type": "address"
            },
            {
              "internalType": "address",
              "name": "to",
              "type": "address"
            },
            {
              "internalType": "string",
              "name": "goodsId",
              "type": "string"
            },
            {
              "internalType": "string",
              "name": "data",
              "type": "string"
            },
            {
              "internalType": "uint256",
              "name": "timestamp",
              "type": "uint256"
            }
          ],
          "internalType": "struct GoodsTransaction.Transaction[]",
          "name": "",
          "type": "tuple[]"
        }
      ],
      "stateMutability": "view",
      "type": "function"
    }
  ],
  "bytecode": "0x608060405234801561001057600080fd5b50610a92806100206000396000f3fe608060405234801561001057600080fd5b506004361061004c5760003560e01c8063861c4aa1146100515780638be882191461007a5780639ace38c21461008f5780639e8058e1146100b3575b600080fd5b61006461005f3660046107fa565b6100c6565b6040516100719190610929565b60405180910390f35b61008d61008836600461077c565b610294565b005b6100a261009d366004610878565b61049e565b6040516100719594939291906108d8565b6100a26100c1366004610835565b6105fe565b60606001826040516100d891906108bc565b9081526020016040518091039020805480602002602001604051908101604052809291908181526020016000905b828210156102895760008481526020908190206040805160a0810182526005860290920180546001600160a01b039081168452600182015416938301939093526002830180549293929184019161015c90610a0b565b80601f016020809104026020016040519081016040528092919081815260200182805461018890610a0b565b80156101d55780601f106101aa576101008083540402835291602001916101d5565b820191906000526020600020905b8154815290600101906020018083116101b857829003601f168201915b505050505081526020016003820180546101ee90610a0b565b80601f016020809104026020016040519081016040528092919081815260200182805461021a90610a0b565b80156102675780601f1061023c57610100808354040283529160200191610267565b820191906000526020600020905b81548152906001019060200180831161024a57829003601f168201915b5050505050815260200160048201548152505081526020019060010190610106565b505050509050919050565b6040805160a0810182523381526001600160a01b0385811660208084019182529383018681526060840186905242608085015260008054600181018255908052845160059091027f290decd9548b62a8d60345a988386fc84ba6bc95484008f6362f93160ef3e563810180549286166001600160a01b031993841617815593517f290decd9548b62a8d60345a988386fc84ba6bc95484008f6362f93160ef3e5648201805491909616921691909117909355518051939485949293610381937f290decd9548b62a8d60345a988386fc84ba6bc95484008f6362f93160ef3e5659091019290910190610662565b506060820151805161039d916003840191602090910190610662565b506080820151816004015550506001836040516103ba91906108bc565b9081526040805160209281900383019020805460018082018355600092835291849020855160059092020180546001600160a01b03199081166001600160a01b03938416178255868601519382018054909116939092169290921790559083015180518493610430926002850192910190610662565b506060820151805161044c916003840191602090910190610662565b506080820151816004015550507fc05bf56ebcb5068d257e66481e53e9e8500ebd4a2460f988e6a07e459b58a78c33858585426040516104909594939291906108d8565b60405180910390a150505050565b600081815481106104ae57600080fd5b60009182526020909120600590910201805460018201546002830180546001600160a01b0393841695509290911692916104e790610a0b565b80601f016020809104026020016040519081016040528092919081815260200182805461051390610a0b565b80156105605780601f1061053557610100808354040283529160200191610560565b820191906000526020600020905b81548152906001019060200180831161054357829003601f168201915b50505050509080600301805461057590610a0b565b80601f01602080910402602001604051908101604052809291908181526020018280546105a190610a0b565b80156105ee5780601f106105c3576101008083540402835291602001916105ee565b820191906000526020600020905b8154815290600101906020018083116105d157829003601f168201915b5050505050908060040154905085565b8151602081840181018051600182529282019185019190912091905280548290811061062957600080fd5b60009182526020909120600590910201805460018201546002830180546001600160a01b0393841696509190921693506104e790610a0b565b82805461066e90610a0b565b90600052602060002090601f01602090048101928261069057600085556106d6565b82601f106106a957805160ff19168380011785556106d6565b828001600101855582156106d6579182015b828111156106d65782518255916020019190600101906106bb565b506106e29291506106e6565b5090565b5b808211156106e257600081556001016106e7565b600082601f83011261070b578081fd5b813567ffffffffffffffff8082111561072657610726610a46565b604051601f8301601f19168101602001828111828210171561074a5761074a610a46565b604052828152848301602001861015610761578384fd5b82602086016020830137918201602001929092529392505050565b600080600060608486031215610790578283fd5b83356001600160a01b03811681146107a6578384fd5b9250602084013567ffffffffffffffff808211156107c2578384fd5b6107ce878388016106fb565b935060408601359150808211156107e3578283fd5b506107f0868287016106fb565b9150509250925092565b60006020828403121561080b578081fd5b813567ffffffffffffffff811115610821578182fd5b61082d848285016106fb565b949350505050565b60008060408385031215610847578182fd5b823567ffffffffffffffff81111561085d578283fd5b610869858286016106fb565b95602094909401359450505050565b600060208284031215610889578081fd5b5035919050565b600081518084526108a88160208601602086016109db565b601f01601f19169290920160200192915050565b600082516108ce8184602087016109db565b9190910192915050565b6001600160a01b0386811682528516602082015260a06040820181905260009061090490830186610890565b82810360608401526109168186610890565b9150508260808301529695505050505050565b60208082528251828201819052600091906040908185019080840286018301878501865b838110156109cd57888303603f19018552815180516001600160a01b0390811685528882015116888501528681015160a08886018190529061099182870182610890565b915050606080830151868303828801526109ab8382610890565b608094850151979094019690965250509487019492509086019060010161094d565b509098975050505050505050565b60005b838110156109f65781810151838201526020016109de565b83811115610a05576000848401525b50505050565b600281046001821680610a1f57607f821691505b60208210811415610a4057634e487b7160e01b600052602260045260246000fd5b50919050565b634e487b7160e01b600052604160045260246000fdfea26469706673582212201c0d8e2e805512150784442c6b0bba7a91a665ce9bab4497b6b5297bd009926364736f6c63430008000033",
  "immutableReferences": {},
  "source": "// SPDX-License-Identifier: MIT\r\npragma solidity ^0.8.0;\r\n\r\ncontract GoodsTransaction {\r\n    struct Transaction {\r\n        address from;\r\n        address to;\r\n        string goodsId;\r\n        string data;\r\n        uint timestamp;\r\n    }\r\n\r\n    Transaction[] public transactions;\r\n    mapping(string => Transaction[]) public goodsHistory;\r\n\r\n    event TransactionMade(address from, address to, string goodsId, string data, uint timestamp);\r\n\r\n    function makeTransaction(address _to, string memory _goodsId, string memory _data) public {\r\n        Transaction memory newTransaction = Transaction({\r\n            from: msg.sender,\r\n            to: _to,\r\n            goodsId: _goodsId,\r\n            timestamp: block.timestamp,\r\n            data: _data\r\n        });\r\n        transactions.push(newTransaction);\r\n        goodsHistory[_goodsId].push(newTransaction);\r\n\r\n        emit TransactionMade(msg.sender, _to, _goodsId, _data, block.timestamp);\r\n    }\r\n\r\n    function getGoodsHistory(string memory _goodsId) public view returns (Transaction[] memory) {\r\n        return goodsHistory[_goodsId];\r\n    }\r\n}\r\n\r\n\r\n\r\n",
  "sourcePath": "C:\\Users\\USER\\Desktop\\Programming\\Projects\\DrugTraceability\\QR-Codes\\simulation\\sim4\\knowledge\\advanced\\adv3\\contracts\\GoodsTransaction.sol",
  "compiler": {
    "name": "solc",
    "version": "0.8.0+commit.c7dfd78e.Emscripten.clang"
  },
  "schemaVersion": "3.4.16",
  "updatedAt": "2024-07-18T23:42:49.757Z",
  "devdoc": {
    "kind": "dev",
    "methods": {},
    "version": 1
  },
  "userdoc": {
    "kind": "user",
    "methods": {},
    "version": 1
  }
}