{
  "contractName": "UserContract",
  "abi": [
    {
      "inputs": [
        {
          "internalType": "address",
          "name": "",
          "type": "address"
        }
      ],
      "name": "balances",
      "outputs": [
        {
          "internalType": "uint256",
          "name": "",
          "type": "uint256"
        }
      ],
      "stateMutability": "view",
      "type": "function"
    },
    {
      "inputs": [],
      "name": "register",
      "outputs": [],
      "stateMutability": "nonpayable",
      "type": "function"
    },
    {
      "inputs": [
        {
          "internalType": "address",
          "name": "user",
          "type": "address"
        }
      ],
      "name": "getBalance",
      "outputs": [
        {
          "internalType": "uint256",
          "name": "",
          "type": "uint256"
        }
      ],
      "stateMutability": "view",
      "type": "function"
    }
  ],
  "bytecode": "0x608060405234801561001057600080fd5b50610128806100206000396000f3fe6080604052348015600f57600080fd5b5060043610603c5760003560e01c80631aa3a00814604157806327e235e3146049578063f8b2cb4f14606c575b600080fd5b6047607b565b005b6058605436600460bd565b6090565b6040516063919060e9565b60405180910390f35b6058607736600460bd565b60a2565b33600090815260208190526040902060649055565b60006020819052908152604090205481565b6001600160a01b031660009081526020819052604090205490565b60006020828403121560cd578081fd5b81356001600160a01b038116811460e2578182fd5b9392505050565b9081526020019056fea264697066735822122093852ad8dd3ef2a94f7808ce0240df04e551685d8a7ba241c987ad53468e81e964736f6c63430008000033",
  "immutableReferences": {},
  "source": "// SPDX-License-Identifier: MIT\r\npragma solidity ^0.8.0;\r\n\r\ncontract UserContract {\r\n    mapping(address => uint256) public balances;\r\n\r\n    function register() public {\r\n        balances[msg.sender] = 100; // Give some initial balance\r\n    }\r\n\r\n    function getBalance(address user) public view returns (uint256) {\r\n        return balances[user];\r\n    }\r\n}\r\n",
  "sourcePath": "C:\\Users\\USER\\Desktop\\Programming\\Projects\\DrugTraceability\\QR-Codes\\simulation\\sim4\\knowledge\\advanced\\adv3\\contracts\\UserContract.sol",
  "compiler": {
    "name": "solc",
    "version": "0.8.0+commit.c7dfd78e.Emscripten.clang"
  },
  "schemaVersion": "3.4.16",
  "updatedAt": "2024-07-18T23:42:49.771Z",
  "devdoc": {
    "kind": "dev",
    "methods": {},
    "version": 1
  },
  "userdoc": {
    "kind": "user",
    "methods": {},
    "version": 1
  }
}