{
  "contractName": "GoodsTransaction",
  "abi": [
    {
      "anonymous": false,
      "inputs": [
        {
          "indexed": false,
          "internalType": "address",
          "name": "from",
          "type": "address"
        },
        {
          "indexed": false,
          "internalType": "address",
          "name": "to",
          "type": "address"
        },
        {
          "indexed": false,
          "internalType": "string",
          "name": "goodsId",
          "type": "string"
        },
        {
          "indexed": false,
          "internalType": "uint256",
          "name": "timestamp",
          "type": "uint256"
        }
      ],
      "name": "TransactionMade",
      "type": "event"
    },
    {
      "inputs": [
        {
          "internalType": "string",
          "name": "",
          "type": "string"
        },
        {
          "internalType": "uint256",
          "name": "",
          "type": "uint256"
        }
      ],
      "name": "goodsHistory",
      "outputs": [
        {
          "internalType": "address",
          "name": "from",
          "type": "address"
        },
        {
          "internalType": "address",
          "name": "to",
          "type": "address"
        },
        {
          "internalType": "string",
          "name": "goodsId",
          "type": "string"
        },
        {
          "internalType": "uint256",
          "name": "timestamp",
          "type": "uint256"
        },
        {
          "internalType": "string",
          "name": "data",
          "type": "string"
        }
      ],
      "stateMutability": "view",
      "type": "function",
      "constant": true
    },
    {
      "inputs": [
        {
          "internalType": "uint256",
          "name": "",
          "type": "uint256"
        }
      ],
      "name": "transactions",
      "outputs": [
        {
          "internalType": "address",
          "name": "from",
          "type": "address"
        },
        {
          "internalType": "address",
          "name": "to",
          "type": "address"
        },
        {
          "internalType": "string",
          "name": "goodsId",
          "type": "string"
        },
        {
          "internalType": "uint256",
          "name": "timestamp",
          "type": "uint256"
        },
        {
          "internalType": "string",
          "name": "data",
          "type": "string"
        }
      ],
      "stateMutability": "view",
      "type": "function",
      "constant": true
    },
    {
      "inputs": [
        {
          "internalType": "address",
          "name": "_to",
          "type": "address"
        },
        {
          "internalType": "string",
          "name": "_goodsId",
          "type": "string"
        },
        {
          "internalType": "string",
          "name": "_data",
          "type": "string"
        }
      ],
      "name": "makeTransaction",
      "outputs": [],
      "stateMutability": "nonpayable",
      "type": "function"
    },
    {
      "inputs": [
        {
          "internalType": "string",
          "name": "_goodsId",
          "type": "string"
        }
      ],
      "name": "getGoodsHistory",
      "outputs": [
        {
          "components": [
            {
              "internalType": "address",
              "name": "from",
              "type": "address"
            },
            {
              "internalType": "address",
              "name": "to",
              "type": "address"
            },
            {
              "internalType": "string",
              "name": "goodsId",
              "type": "string"
            },
            {
              "internalType": "uint256",
              "name": "timestamp",
              "type": "uint256"
            },
            {
              "internalType": "string",
              "name": "data",
              "type": "string"
            }
          ],
          "internalType": "struct GoodsTransaction.Transaction[]",
          "name": "",
          "type": "tuple[]"
        }
      ],
      "stateMutability": "view",
      "type": "function",
      "constant": true
    }
  ],
  "bytecode": "0x608060405234801561001057600080fd5b50610bab806100206000396000f3fe608060405234801561001057600080fd5b506004361061004c5760003560e01c8063861c4aa1146100515780638be882191461007a5780639ace38c21461008f5780639e8058e1146100b3575b600080fd5b61006461005f366004610869565b6100c6565b60405161007191906109d4565b60405180910390f35b61008d6100883660046107eb565b6102be565b005b6100a261009d3660046108e7565b61050d565b604051610071959493929190610984565b6100a26100c13660046108a4565b61066d565b606060008251116100f25760405162461bcd60e51b81526004016100e990610a86565b60405180910390fd5b600182604051610102919061092b565b9081526020016040518091039020805480602002602001604051908101604052809291908181526020016000905b828210156102b35760008481526020908190206040805160a0810182526005860290920180546001600160a01b039081168452600182015416938301939093526002830180549293929184019161018690610b24565b80601f01602080910402602001604051908101604052809291908181526020018280546101b290610b24565b80156101ff5780601f106101d4576101008083540402835291602001916101ff565b820191906000526020600020905b8154815290600101906020018083116101e257829003601f168201915b505050505081526020016003820154815260200160048201805461022290610b24565b80601f016020809104026020016040519081016040528092919081815260200182805461024e90610b24565b801561029b5780601f106102705761010080835404028352916020019161029b565b820191906000526020600020905b81548152906001019060200180831161027e57829003601f168201915b50505050508152505081526020019060010190610130565b505050509050919050565b6001600160a01b0383166102e45760405162461bcd60e51b81526004016100e990610abd565b60008251116103055760405162461bcd60e51b81526004016100e990610a86565b6040805160a0810182523381526001600160a01b0385811660208084019182529383018681524260608501526080840186905260008054600181018255908052845160059091027f290decd9548b62a8d60345a988386fc84ba6bc95484008f6362f93160ef3e563810180549286166001600160a01b031993841617815593517f290decd9548b62a8d60345a988386fc84ba6bc95484008f6362f93160ef3e56482018054919096169216919091179093555180519394859492936103f2937f290decd9548b62a8d60345a988386fc84ba6bc95484008f6362f93160ef3e56590910192909101906106d1565b5060608201516003820155608082015180516104189160048401916020909101906106d1565b50505060018360405161042b919061092b565b9081526040805160209281900383019020805460018082018355600092835291849020855160059092020180546001600160a01b03199081166001600160a01b039384161782558686015193820180549091169390921692909217905590830151805184936104a19260028501929101906106d1565b5060608201516003820155608082015180516104c79160048401916020909101906106d1565b5050507f2ef2822b306502538263a9a22eff932f9be3de14fbc0691087ddc74e96465f4e338585426040516104ff9493929190610947565b60405180910390a150505050565b6000818154811061051d57600080fd5b60009182526020909120600590910201805460018201546002830180546001600160a01b03938416955092909116929161055690610b24565b80601f016020809104026020016040519081016040528092919081815260200182805461058290610b24565b80156105cf5780601f106105a4576101008083540402835291602001916105cf565b820191906000526020600020905b8154815290600101906020018083116105b257829003601f168201915b5050505050908060030154908060040180546105ea90610b24565b80601f016020809104026020016040519081016040528092919081815260200182805461061690610b24565b80156106635780601f1061063857610100808354040283529160200191610663565b820191906000526020600020905b81548152906001019060200180831161064657829003601f168201915b5050505050905085565b8151602081840181018051600182529282019185019190912091905280548290811061069857600080fd5b60009182526020909120600590910201805460018201546002830180546001600160a01b03938416965091909216935061055690610b24565b8280546106dd90610b24565b90600052602060002090601f0160209004810192826106ff5760008555610745565b82601f1061071857805160ff1916838001178555610745565b82800160010185558215610745579182015b8281111561074557825182559160200191906001019061072a565b50610751929150610755565b5090565b5b808211156107515760008155600101610756565b600082601f83011261077a578081fd5b813567ffffffffffffffff8082111561079557610795610b5f565b604051601f8301601f1916810160200182811182821017156107b9576107b9610b5f565b6040528281528483016020018610156107d0578384fd5b82602086016020830137918201602001929092529392505050565b6000806000606084860312156107ff578283fd5b83356001600160a01b0381168114610815578384fd5b9250602084013567ffffffffffffffff80821115610831578384fd5b61083d8783880161076a565b93506040860135915080821115610852578283fd5b5061085f8682870161076a565b9150509250925092565b60006020828403121561087a578081fd5b813567ffffffffffffffff811115610890578182fd5b61089c8482850161076a565b949350505050565b600080604083850312156108b6578182fd5b823567ffffffffffffffff8111156108cc578283fd5b6108d88582860161076a565b95602094909401359450505050565b6000602082840312156108f8578081fd5b5035919050565b60008151808452610917816020860160208601610af4565b601f01601f19169290920160200192915050565b6000825161093d818460208701610af4565b9190910192915050565b6001600160a01b03858116825284166020820152608060408201819052600090610973908301856108ff565b905082606083015295945050505050565b6001600160a01b0386811682528516602082015260a0604082018190526000906109b0908301866108ff565b84606084015282810360808401526109c881856108ff565b98975050505050505050565b60208082528251828201819052600091906040908185019080840286018301878501865b83811015610a7857888303603f19018552815180516001600160a01b0390811685528882015116888501528681015160a088860181905290610a3c828701826108ff565b915050606080830151818701525060808083015192508582038187015250610a6481836108ff565b9689019694505050908601906001016109f8565b509098975050505050505050565b60208082526018908201527f476f6f64732049442063616e6e6f7420626520656d7074790000000000000000604082015260600190565b60208082526019908201527f496e76616c696420726563697069656e74206164647265737300000000000000604082015260600190565b60005b83811015610b0f578181015183820152602001610af7565b83811115610b1e576000848401525b50505050565b600281046001821680610b3857607f821691505b60208210811415610b5957634e487b7160e01b600052602260045260246000fd5b50919050565b634e487b7160e01b600052604160045260246000fdfea26469706673582212207c3c4b2974e8bc8c0f712b54b6fe58e1e17ff081debda836ba50edf2bc353d4a64736f6c63430008000033",
  "immutableReferences": {},
  "source": "// SPDX-License-Identifier: MIT\r\npragma solidity ^0.8.0;\r\n\r\ncontract GoodsTransaction {\r\n    struct Transaction {\r\n        address from;\r\n        address to;\r\n        string goodsId;\r\n        uint timestamp;\r\n        string data;\r\n    }\r\n\r\n    Transaction[] public transactions;\r\n\r\n    mapping(string => Transaction[]) public goodsHistory;\r\n\r\n    event TransactionMade(address from, address to, string goodsId, uint timestamp);\r\n\r\n    function makeTransaction(address _to, string memory _goodsId, string memory _data) public {\r\n        require(_to != address(0), \"Invalid recipient address\");\r\n        require(bytes(_goodsId).length > 0, \"Goods ID cannot be empty\");\r\n\r\n        Transaction memory newTransaction = Transaction({\r\n            from: msg.sender,\r\n            to: _to,\r\n            goodsId: _goodsId,\r\n            timestamp: block.timestamp,\r\n            data: _data\r\n        });\r\n\r\n        transactions.push(newTransaction);\r\n        goodsHistory[_goodsId].push(newTransaction);\r\n\r\n        emit TransactionMade(msg.sender, _to, _goodsId, block.timestamp);\r\n    }\r\n\r\n    function getGoodsHistory(string memory _goodsId) public view returns (Transaction[] memory) {\r\n        require(bytes(_goodsId).length > 0, \"Goods ID cannot be empty\");\r\n        return goodsHistory[_goodsId];\r\n    }\r\n}\r\n\r\n\r\n",
  "sourcePath": "C:\\Users\\USER\\Desktop\\Programming\\Projects\\DrugTraceability\\QR-Codes\\simulation\\sim4\\knowledge\\advanced\\System2\\contracts\\GoodsTransaction.sol",
  "compiler": {
    "name": "solc",
    "version": "0.8.0+commit.c7dfd78e.Emscripten.clang"
  },
  "schemaVersion": "3.4.16",
  "updatedAt": "2024-07-04T04:03:41.722Z",
  "networkType": "ethereum",
  "devdoc": {
    "kind": "dev",
    "methods": {},
    "version": 1
  },
  "userdoc": {
    "kind": "user",
    "methods": {},
    "version": 1
  }
}